:020000040000FA
:020000001028C6
:080008002828820710345B3444
:100010000C3409344334213420341B34003401348B
:1000200083168111811287018801061783128B16AE
:100030008B178030A8008801A201312022080520FA
:10004000A000582058205820061F3728A20A1D2833
:100050000B11280887052008870628088706081638
:100060000900220803110A3A031910280800061F84
:1000700037282208A2070311A300053A03195528BF
:1000800023080311063A0319552823080311073AD8
:100090000319552823080311083A03195528230882
:1000A0000311093A031955281D280A30A2021D28F8
:1000B0000D30A500FF30A600A700A70B5D28A60BFA
:0800C0005C28A50B5B28080079
:02400E00F23F7F
:00000001FF
