:020000040000FA
:020000001028C6
:080008002428820710345B3448
:100010000C3409344334213420341B34003401348B
:100020008316811181128701061783128B168B1795
:100030008030A800A2012C2022080520A000532017
:10004000061F3228A20A1B280B1128088705200842
:100050008706280887060900220803110A3A0319AF
:1000600010280800061F32282208A2070311A30047
:10007000053A0319502823080311063A031950289A
:1000800023080311073A0319502823080311083ADB
:100090000319502823080311093A031950281B2873
:1000A0000A30A2021B280C30A500FF30A600A700D2
:0E00B000A70B5828A60B5728A50B56280800AA
:02400E00F23F7F
:00000001FF
